:10000000A9C00000C3C00000C1C00000BFC0000004
:10001000BDC00000BBC00000B9C00000B7C00000F8
:10002000B5C00000B3C000000C9408140C94DB149D
:10003000ADC00000ABC00000A9C00000A7C0000018
:10004000A5C00000A3C00000A1C000009FC0000028
:100050009DC000000C94080F99C0000097C00000DC
:1000600095C0000093C0000091C000008FC0000048
:100070008DC000008BC0000089C0000087C0000058
:1000800085C0000083C0000081C000007FC0000068
:100090007DC000007BC0000079C0000077C0000078
:1000A00075C0000073C0000071C00000140366003A
:1000B0006500750069006C006C0065003600340056
:1000C0000000140366006500750069006C006C0098
:1000D00065003600340000000403090409026500CD
:1000E000020100C0320904000000010100000924DF
:1000F00001000109000101090401000201030000DF
:100100000724010001410006240201010006240227
:100110000202000924030103010201000924030271
:100120000401010100090501024000050000052548
:1001300001010109058202400005000005250101B9
:100140000312011001000000083412010001000137
:100150000200010011241FBECFEFDAE0DEBFCDBFE9
:1001600012E0A0E0B1E0EAEAFEE202C005900D92E2
:10017000A63EB107D9F724E0A6EEB2E001C01D9279
:10018000AE36B207E1F766D00C94531739CF9C0115
:10019000DA01832F99278230910511F1833091057F
:1001A00081F0019739F090E080E030E020E02D937D
:1001B0003C93089582E190E021E431E02D933C935B
:1001C0000895C90199272130C1F08230910579F055
:1001D000892B49F7E8EDF0E0849190E09F01E7CFAB
:1001E00085E690E02CED30E02D933C930895ECEA09
:1001F000F0E0849190E09F01DACFE2ECF0E08491AE
:1002000090E09F01D4CF4DC784B7877F84BF0FB6DE
:10021000F894A895809160008861809360001092A6
:1002200060000FBE85B7806885BF85B7806885BFD1
:1002300080E890E00FB6F89480936100909361009D
:100240000FBE0E94E40E74D65CD70E94EB0D0E9494
:10025000EB13BAC7CDB7DEB728970FB6F894DEBF59
:100260000FBECDBFD1DF7894BDD6DBD60E94ED0E98
:100270007C010E94ED0E8C010E94300EE0D607C07A
:1002800089819A81AB81BC81BC01CD01DBD7BE01E4
:100290006F5F7F4F80E091E00E94FC168111F0CFEC
:1002A00080E091E00E94ED16C7010E94F90E44978C
:1002B00000F332D77801DDCF0895089580E091E012
:1002C0000C94A0160895EF92FF920F931F93CF9373
:1002D000DF93EC018091E902681709F45EC0809118
:1002E000E802882309F4C2C18091F402681709F476
:1002F000F8C08091F302882309F4E8C18091FF02DD
:10030000681709F405C18091FE02882309F4D2C15F
:1003100080910A03681709F412C1809109038823A8
:1003200009F4BCC180911503681709F41FC18091BD
:100330001403882309F48EC180912003681709F4FF
:100340002CC180911F03882309F478C180912B036D
:10035000681709F439C180912A03882309F462C11E
:1003600080913603861709F446C140913503442332
:1003700009F488C1188219821A821B821C821D828C
:100380001E821F82188619861A86CE01DF91CF91B0
:100390001F910F91FF90EF9008958091EA0248130A
:1003A0009ECF8091E802E090EB02F090EC02009189
:1003B000ED021091EE027091EF025091F002309137
:1003C000F1022091F2029BE0E3EFF2E0A8EEB2E04E
:1003D00001900D929A95E1F79091E802992309F422
:1003E0004FC19BE0EEEFF2E0A3EFB2E001900D927F
:1003F0009A95E1F79091F302992309F471C19BE07A
:10040000E9E0F3E0AEEFB2E001900D929A95E1F7EA
:100410009091FE02992309F457C19BE0E4E1F3E0D7
:10042000A9E0B3E001900D929A95E1F7909109034C
:10043000992309F43DC19BE0EFE1F3E0A4E1B3E0CF
:1004400001900D929A95E1F790911403992309F484
:100450000BC19BE0EAE2F3E0AFE1B3E001900D9263
:100460009A95E1F790911F03992309F4F1C09BE05D
:10047000E5E3F3E0AAE2B3E001900D929A95E1F78B
:1004800090912A03992309F4D7C010923503109252
:1004900036031092370310923803109239031092EA
:1004A0003A0310923B0310923C0310923D031092CA
:1004B0003E0310923F0397E09093E702888369839D
:1004C0004A83EB82FC820D831E837F8358873987A2
:1004D0002A87CE01DF91CF911F910F91FF90EF906E
:1004E00008958091F502481304CF8091F302E090C3
:1004F000F602F090F7020091F8021091F902709163
:10050000FA025091FB023091FC022091FD0269CF6A
:10051000809100034813F7CE8091FE02E090010322
:10052000F0900203009103031091040370910503FE
:1005300050910603309107032091080360CF80910A
:100540000B034813EACE80910903E0900C03F0906E
:100550000D0300910E0310910F0370911003509141
:100560001103309112032091130357CF809116038A
:100570004813DDCE80911403E0901703F090180328
:100580000091190310911A0370911B0350911C03E1
:1005900030911D0320911E034ECF809121034813FB
:1005A000D0CE80911F03E0902203F09023030091AE
:1005B0002403109125037091260350912703309155
:1005C00028032091290345CF80912C034813C3CEE3
:1005D00080912A03E0902D03F0902E0300912F03C9
:1005E00010913003709131035091320330913303F5
:1005F000209134033CCF809137038413B6CE809191
:100600003503E0903803F090390300913A031091DC
:100610003B0370913C0350913D0330913E03209188
:100620003F0333CF20E030E050E070E010E000E026
:10063000F12C60E040E0E12C96E03ECF20E030E09D
:1006400050E070E010E000E0F12C60E040E0E12CD0
:1006500095E032CF20E030E050E070E010E000E0C4
:10066000F12C60E040E0E12C94E026CF20E030E087
:1006700050E070E010E000E0F12C60E040E0E12CA0
:1006800090E01ACF20E030E050E070E010E000E0B1
:10069000F12C80E060E0E12C97E00ECF20E030E02C
:1006A00050E070E010E000E0F12C60E040E0E12C70
:1006B00093E002CF20E030E050E070E010E000E096
:1006C000F12C60E040E0E12C92E0F6CE20E030E05A
:1006D00050E070E010E000E0F12C60E040E0E12C40
:1006E00091E0EACEAF92BF92CF92DF92EF92FF926B
:1006F0000F931F93CF93DF93CDB7DEB72B970FB632
:10070000F894DEBF0FBECDBF8C01E62EF42E809193
:10071000E702883098F59BE0899FF0011124E851A9
:10072000FD4F91E09083618342831382148215828E
:10073000168217821086118612868F5F8093E702D9
:10074000F80110821182128213821482158216829D
:100750001782108611861286C8012B960FB6F89460
:10076000DEBF0FBECDBFDF91CF911F910F91FF90E4
:10077000EF90DF90CF90BF90AF9008954091EA0244
:100780006091E902CE0101969EDDC980DA80BB81CD
:10079000AC817D816E815F81488539852A85AB84F6
:1007A0008091E7029BE0899FF0011124E851FD4F01
:1007B000BB24B394B082E182F28213821482158248
:1007C000168217821086118612868F5F8093E70249
:1007D000F801C082D182B283A38374836583568378
:1007E000478330872187A286B7CFE8EEF2E01082F8
:1007F0001182128213821482158216821782108649
:100800001186128613861486158616861786108A18
:10081000118A128A138A148A158A168A178A108EE8
:10082000118E128E138E148E158E168E178E10A2A8
:1008300011A212A213A214A215A216A217A210A608
:1008400011A612A613A614A615A616A617A610AAD8
:1008500011AA12AA13AA14AA15AA16AA17AA10AEA8
:1008600011AE12AE13AE14AE15AE16AE17AE109298
:1008700028031092290310922A0310922B0310923E
:100880002C0310922D0310922E0310922F0310921E
:1008900030031092310310923203109233031092FE
:1008A00034031092350310923603109237031092DE
:1008B00038031092390310923A0310923B031092BE
:1008C0003C0310923D0310923E0310923F0310929E
:1008D000E70208958F929F92AF92BF92CF92DF92DC
:1008E000EF92FF920F931F93CF93DF9300D000D02E
:1008F0000F92CDB7DEB724D3811112C00F900F90A5
:100900000F900F900F90DF91CF911F910F91FF905B
:10091000EF90DF90CF90BF90AF909F908F90089511
:1009200035D39BEA899FD12C1124D694D6949D2D42
:10093000990FD90EDD0C8D19D82E08EE12E080E447
:10094000E82E83E0F82E9BEAC92EBB24B3942EE058
:10095000822E3CE0932E42E0A42E07C0823061F04C
:10096000055F1F4FE016F10649F2F80180818130E2
:10097000A9F7D110F5CFA082F80193819C9D802D1D
:100980001124865D80FB879587F98B3208F04DC076
:100990008581811153C0F8018285811106C0918142
:1009A000968317829281908711865BD43A834B831A
:1009B0006D835523B1F1F801B5829681878181114C
:1009C0002195290F27FD48C0273024F0F92DF21B6F
:1009D0002F2F8B25F80126838783908581856A8157
:1009E00081116195690F67FD3AC0683024F0F82DD8
:1009F000F61B6F2F8B25F801608781878681F8D5DC
:100A0000682FF8018483EB81F0E0E050FE4F21E095
:100A1000408181E0E3D3F80186814FE060858F5FFC
:100A2000A0D38D81F8018287938181E0890FF8013D
:100A30009F3511F0838394CF138292CF21E040E45D
:100A4000648180E0CBD3F801868140E060858F5FD0
:100A500088D3F80115829FCF21958B25BBCF619557
:100A60008B25C9CFCF92DF92EF92FF920F931F9306
:100A7000CF93DF93CDB7DEB72B970FB6F894DEBFD9
:100A80000FBECDBF182F062F8091E602462F612F93
:100A90008823C9F0CE0101967C0115DC8E8181117D
:100AA0003AC089818823B1F02B960FB6F894DEBF47
:100AB0000FBECDBFDF91CF911F910F91FF90EF90AF
:100AC000DF90CF900895CE0101967C01FCDB8E81F2
:100AD000811131C0402F612FC70104DE8E81882330
:100AE00019F31F81098521E040E46D8180E076D310
:100AF00040E0602F81E0810F2B960FB6F894DEBFA7
:100B00000FBECDBFDF91CF911F910F91FF90EF905E
:100B1000DF90CF9026C3DF80C98421E040E46D815F
:100B200080E05CD340E06C2D81E08D0D1AD389818B
:100B30008111BACFCFCFDF80C98421E040E46D813D
:100B400080E04CD340E06C2D81E08D0D0AD3402F26
:100B5000612FC701C7DD8E81882309F4A5CFC1CFDE
:100B6000CF93DF93CDB7DEB72B970FB6F894DEBFE8
:100B70000FBECDBF9091E602992349F02B960FB698
:100B8000F894DEBF0FBECDBFDF91CF910895462F01
:100B9000682FCE01019697DB8E81882379F321E0BF
:100BA00040E46D8180E01AD38F8140E069858F5FDA
:100BB0002B960FB6F894DEBF0FBECDBFDF91CF915D
:100BC000D0C21092E8028091ED0281113DC01092D6
:100BD000ED021092F3028091F80281114BC0109245
:100BE000F8021092FE0280910303811159C0109205
:100BF00003031092090380910E03811167C01092C4
:100C00000E031092140380911903811175C0109284
:100C1000190310921F0380912403811183C0109245
:100C2000240310922A0380912F03811191C0109206
:100C30002F031092350380913A0381119FC01092C7
:100C40003A031092E602089521E040E46091EC023C
:100C500080E0C4D28091EE0240E06091F0028F5FAC
:100C600080D21092ED021092F3028091F802882354
:100C700009F4B5CF21E040E46091F70280E0AED204
:100C80008091F90240E06091FB028F5F6AD210927E
:100C9000F8021092FE0280910303882309F4A7CF83
:100CA00021E040E46091020380E098D28091040347
:100CB00040E0609106038F5F54D2109203031092BC
:100CC000090380910E03882309F499CF21E040E4C1
:100CD00060910D0380E082D280910F0340E060912B
:100CE00011038F5F3ED210920E0310921403809175
:100CF0001903882309F48BCF21E040E460911803A5
:100D000080E06CD280911A0340E060911C038F5FF9
:100D100028D21092190310921F0380912403882374
:100D200009F47DCF21E040E46091230380E056D2B6
:100D30008091250340E0609127038F5F12D21092CB
:100D4000240310922A0380912F03882309F46FCF84
:100D500021E040E460912E0380E040D28091300396
:100D600040E0609132038F5FFCD110922F0310920C
:100D7000350380913A03882309F461CF21E040E4F0
:100D80006091390380E02AD280913B0340E060917A
:100D90003D038F5FE6D110923A031092E602089568
:100DA000CF93C82F95D2682F40E080E0DAD18C2F06
:100DB0008CD24FE06C2F80E0CF91D3C18091E602BE
:100DC00091E089278093E602882321F04FE067E0D5
:100DD00080E0C7C1F6DE8091E6028111F7CF40E0E6
:100DE00067E080E0BEC180E0DBD172D2682F4FE0C7
:100DF00080E0B7D18091E60240E081114FE067E0EA
:100E000080E0AFD18091ED0281111DC08091F80288
:100E1000811123C080910303811129C080910E03A9
:100E200081112FC080911903811135C08091240355
:100E300081113CC080912F03811143C080913A03FE
:100E400081114AC008954FE06091F0028091EE0256
:100E500088D18091F8028823E9F24FE06091FB028B
:100E60008091F9027ED1809103038823B9F24FE08B
:100E7000609106038091040374D180910E0388234E
:100E800089F24FE06091110380910F036AD1809144
:100E90001903882359F24FE060911C0380911A03D3
:100EA00060D180912403882309F4C4CF4FE060917E
:100EB00027038091250355D180912F03882309F4BE
:100EC000BDCF4FE060913203809130034AD18091D1
:100ED0003A03882309F4B6CF4FE060913D03809137
:100EE0003B033FC18C33D8F49CE390930C011092E8
:100EF0004303282F30E050E040E068E679E889E0DD
:100F000090E00E94221721503109309389002093EC
:100F100088001092850010928400B19A0895893C4F
:100F200020F098EC90930C01E2CF80930C01DFCF7E
:100F3000109280008BE08093810080910C01D2CFD1
:100F400080914203882361F0909140039923A9F096
:100F500020914303920F909343031092400308950E
:100F6000B19B0CC0B19A8091430391E0980F8F35EB
:100F700031F09093430381E0089580E0089510924A
:100F8000430381E0089580910C010895809143030B
:100F9000089580910C01A6CF80934203811108959A
:100FA000F8CF80914203089580914203882329F06D
:100FB0001092400381E080934103089580914203A1
:100FC000811110924103089580914203882349F0D2
:100FD00080914103882329F0809140038F5F8093A3
:100FE0004003089510924403E091E201F091E3017F
:100FF0000995E091D801F091D9010995E091F601A8
:10100000F091F7010995E0914403F0E0EE0FFF1F26
:10101000EB5FFD4F0190F081E02D0280F381E02D28
:101020000994E0914403F0E0EE0FFF1FEB5FFD4FEA
:101030000190F081E02D0280F381E02D0994E09190
:101040004403F0E0EE0FFF1FEB5FFD4F0190F081D6
:10105000E02D0480F581E02D0994CF93C82FE09115
:101060004403E817E1F0F0E0EE0FFF1FEB5FFD4FE8
:101070000190F081E02D0084F185E02D0995C09369
:101080004403EC2FF0E0EE0FFF1FEB5FFD4F0190EC
:10109000F081E02D0280F381E02DCF910994CF9172
:1010A000089581110BC04423B9F0633029F1A8F4ED
:1010B000613021F16230C9F482E0CFCFE091440386
:1010C000F0E0EE0FFF1FEB5FFD4F0190F081E02D90
:1010D0000680F781E02D09940895653059F0673056
:1010E00079F45FDF91E0892757CF611102C080E07A
:1010F000B4CF089581E08FC083E0AFCF81E0ADCF62
:101100000895E5E4F3E0108211821282339684E0C0
:10111000E530F807C1F7089560E470E085E493E0F6
:101120009BC60F93E82FF0E0EE0FFF1FEE0FFF1F9F
:10113000EE0FFF1F70E080FF06C087E090E0DC014B
:10114000A61BB70BBD016E0F7F1FFB01EE0FFF1F2C
:10115000E60FF71FEB5BFC4F2083418302830F9167
:101160000895E82FF0E0EE0FFF1FEE0FFF1FEE0FC8
:10117000FF1F70E080FF06C087E090E09C01261B07
:10118000370BB901440F6E0F7F1FFB01EE0FFF1FDE
:10119000E60FF71FEB5BFC4F4083418342830895CA
:1011A0001F93CF93DF93182FD0E0C0E0412F6C2F17
:1011B0008D2FD7DFCF5FC830C9F7DF5FD830A9F7F1
:1011C000DF91CF911F9108950895BC0180E091E0D7
:1011D0000E94B71680E091E00C94D416CF93DF9371
:1011E00000D000D0CDB7DEB7922F811111C088E0BA
:1011F00020E88983292B2A836B834C83CE010196B7
:10120000E4DF0F900F900F900F90DF91CF91089532
:1012100089E020E9EECFCF93DF9300D000D0CDB7A7
:10122000DEB79BE09983806B8A838BE78B831C827C
:10123000CE010196CADF0F900F900F900F90DF91B3
:10124000CF9108957A3F29F07C3F29F0783F11F043
:101250000895AACEB9CEB2DE81E0DDCF10920504AA
:101260000895CF93DF9300D000D00F92CDB7DEB7B3
:10127000682F80910504E62FF0E0EE0FFF1FEE0FC0
:10128000FF1F21E2829FC0011124E80FF91FE35FD5
:10129000FE4F30817181528143816F5F835F9E4F2A
:1012A000FC0180A1681708F060E0232F4C83372FE2
:1012B000452F5C8170E080E090E00F900F900F90E0
:1012C0000F900F90DF91CF910895809305040895BA
:1012D000809105040895CF93DF9300D000D0CDB75F
:1012E000DEB7E82FF0E080910504EE0FFF1FEE0F50
:1012F000FF1F91E2899FE00DF11D1124E35FFE4F76
:1013000080819181A281B381BC01CD010F900F90AA
:101310000F900F90DF91CF910895E091050481E245
:10132000E89FF0011124E35FFE4F80A108959091A2
:101330000504E82FF0E0EE0FFF1FEE0FFF1F81E224
:10134000989FE00DF11D1124E35FFE4F6083418300
:101350000895E82FF0E080910504EE0FFF1FEE0FD7
:10136000FF1F91E2899FE00DF11D1124E35FFE4F05
:1013700062830895E091050491E2E99FF001112450
:10138000E35FFE4F80A3089590910504E82FF0E0FD
:10139000EE0FFF1FEE0FFF1F81E2989FE00DF11D82
:1013A0001124E35FFE4F838191E0892783830895B1
:1013B0000F93CF93C82F80E0F3DE00E020E040E2FF
:1013C0006C2F80E0AEDE8C2F80DF10920804CF916E
:1013D0000F9108957DDFECCFCF93DF93D82FC62FE9
:1013E00090910804609106048091070491111CC03B
:1013F00040E08F5FB6DE4FE06C2F81E08D0FB1DEF5
:10140000D0930704C09306048091080491E0980FDC
:10141000873029F090930804DF91CF9108951092BE
:101420000804DF91CF9108954C2F461B6D2F681B48
:10143000892F7DDF6091060480910704D9CF0F9337
:101440001F93CF93DF93D82F46DFC82F40E0911131
:1014500040E100E020E06D2F86E063DE15E01C1B1C
:10146000C1E040E0C11708F04FE06D2F8C2F79DE0E
:10147000CF5FC630B1F7DF91CF911F910F910895E3
:101480000F93CF93DF9349DFDFEFD80FC0E000E089
:10149000DC1708F000E120E040E06C2F87E041DE3F
:1014A000CF5FC830A1F7DF91CF910F9108950F93CF
:1014B000CF9380E075DE0CDF682F00E020E240E093
:1014C00080E02FDEC0E08C2FBADFCF5FC830D9F7C5
:1014D000CF910F91D5CFFCDEEACFCF93C82F39DF64
:1014E0008C2FCF91ACCFCF93C82F4EDF8C2FCF91C5
:1014F000A6CF40DFC5CF8093D70108958093D60152
:1015000008958093D50108958093D4010895809320
:10151000D30108958091D70108958091D60108954F
:101520008091D50108958091D40108958091D301CF
:101530000895CF92DF92EF920F9350E0440F551F22
:10154000440F551F440F551F43595D4F480F511D00
:1015500030E0220F331F220F331F220F331F235976
:101560003D4F260F311DFA018081F9019081890FCD
:101570000023C1F12BEA829F912D1124392F36953A
:1015800036953695932F990F930F990F990FE82F52
:10159000E91BF0E0EF59FD4F9081890FD12C829F1C
:1015A000912D1124969596959695292F220F920F9D
:1015B000990F990FF82FF91B9F2FF601EE0FFF1FC0
:1015C000EC0DFD1DEE0FFF1FEE0FFF1FE35FFD4F44
:1015D000E90FF11DE80E80818E0D0F91EF90DF90E5
:1015E000CF9008958E0D0F91EF90DF90CF900895DA
:1015F000CF92EF920F93C090D301E090D40100916D
:10160000D5012091D6014091D70193DF0F91EF9042
:10161000CF9008958F929F92AF92BF92CF92DF9218
:10162000EF92FF920F931F93CF93DF93982E862E06
:10163000C42ED22E102FD62FB12CA12C7501C0E0B4
:101640000CC0012F2D2D4C2D6C2F8D2F6ADDCF5FFF
:101650008FEFE81AF80AC83071F08DE0E816F1044F
:1016600084F340E06C2F8D2F7CDDCF5F8FEFE81A85
:10167000F80AC83091F7DF5F88E0A80EB11C80E15E
:10168000A816B104D9F687E0692D891508F46770AA
:10169000892D86958695869500E120E140E1880DAB
:1016A00040DDDF91CF911F910F91FF90EF90DF9080
:1016B000CF90BF90AF909F908F900895EF92FF9240
:1016C0000F93CF93C0E000E020E140E16C2F84E075
:1016D00028DDCF5FC830B9F788E0E82EF12CC0E0F4
:1016E0000CC000E020E140E16C2F85E01ADDCF5F07
:1016F0009FEFE91AF90AC83081F08CE0E816F1048E
:1017000080F300E120E040E06C2F85E00ADDCF5F50
:101710009FEFE91AF90AC83081F705DFC82F8BEA75
:10172000C89F812D1124869586958695982F990FAF
:10173000890F880F880F9C2F981B892F692F98304D
:1017400008F0677086958695869500E120E140E176
:101750008C5FE7DC8BEAC89FC12D1124C695C69526
:10176000C695EC2EC3FD0BC0E2FC10C0E1FC16C018
:10177000C0FD1CC0CF910F91FF90EF90089520E124
:1017800040E164E085E0CDDCE2FEF0CF00E120E165
:1017900040E165E085E0C5DCE1FEEACF00E120E163
:1017A00040E166E085E0BDDCC0FFE4CF00E120E180
:1017B00040E167E085E0B5DCCF910F91FF90EF90BD
:1017C00008950F93CF93C0E000E120E040E16C2F3B
:1017D00086E0A7DCCF5FC730B9F7A8DE682F20E12D
:1017E00040E186E09EDCCF910F9108950F9398DE43
:1017F00040E0811140E100E020E067E086E091DC1C
:101800000F910895DF92EF92FF920F931F93CF9362
:10181000DF93B9DBE82EF12CC7E0D0E027E0D22E31
:1018200087010C2E02C0159507950A94E2F70295E0
:101830001295107F1027007F102700716D2D6C1BF3
:1018400020E040E087E06DDC219750F7DF91CF91F9
:101850001F910F91FF90EF90DF9008950F9380E01C
:101860009FDC58DE00E020E040E160E0D3DE55DEA2
:1018700020E140E062E0CEDE21DFA3DFB7DF0F91A1
:10188000C1CF0F9338DE46DE00E020E040E160E0AB
:10189000C1DE0F9108950F9331DE3FDE00E020E1BD
:1018A00040E062E0B7DE0F910895CF93C82F3BDE92
:1018B000982F8BEA989F912D112496959695969541
:1018C000892F880F980F892F880F880F8C0F1CDEA7
:1018D000CF91F4CECF93C82F26DE9C2F990F9C0F6B
:1018E000990F990F980F97FF892F0EDECF91E6CEB3
:1018F0000EDE67CF15DE91E0892703DE77CFCF9329
:10190000C82F41DB8C0FEEDACF917CCF0895A6CCA7
:1019100061CD442321F0813019F4673018F0089527
:1019200082505ACD862F44CD08950C94F5035BCA9E
:101930000C946A04813021F08250411193C810C97F
:10194000663018F4411106C008956730E9F7442362
:10195000D9F334CA862F24CA34C908957FCF4423CB
:1019600049F0853071F188F4833049F1843019F4FD
:10197000653050F108958130E1F0823009F032C0D5
:101980006530C0F788E0860F7CCF8730A1F08830C3
:1019900041F46623E1F0673019F16430F8F481E036
:1019A000AECF863001F56430A0F06630A8F481E057
:1019B00091CF862F66CF673031F0862F99CF862F53
:1019C0006ACF862F72CF96CF88E0860F64CF8AE0E9
:1019D00096CF88E0860F69CF8FEF7CCF8FEF8FCFC8
:1019E00086EF8DCF0895089508950895089573CDD5
:1019F000CF93C62F442369F0813049F0883099F0A5
:101A0000873071F066E0681B8C2FCF9166CD673010
:101A100010F0CF910895862F58DC8C2FCF9147CDB1
:101A2000862FCF9160CD81E0860FCF9162CD089552
:101A30000895ECE0F4E08BEF8083818382838383DD
:101A40008483858386838783808781878287838752
:101A50008487858786878787808B818B828B838B22
:101A6000848B858B868B878B808F818F828F838FF2
:101A7000848F858F868F878F80A381A382A383A382
:101A800084A385A386A387A380A781A782A783A712
:101A900084A785A786A787A780AB81AB82AB83ABE2
:101AA00084AB85AB86AB87AB80AF81AF82AF83AFB2
:101AB00084AF85AF86AF87AF80934C0480934D048D
:101AC00080934E0480934F0480935004809351047C
:101AD00080935204809353040895EF92FF921F93D2
:101AE000CF93DF937AD19C0160910A0470910B042B
:101AF00090930B0480930A0480910904482F50E0CE
:101B0000461B570B420F531F9A01ADE8B2E80E94E3
:101B10004417DC01AA0FAB2FAA1FBB0BB1952BEF0B
:101B20002A9FC0012B9F900D1124DA01A81BB90B2D
:101B30008A2FA0930904ECE0F4E01BEF9BEFE92E61
:101B4000F12C15C0AD01421B530B052E000C660B8A
:101B5000770B453051056105710528F09F01215033
:101B60003109E9011883D4E0E435FD0769F091916A
:101B70009B3FC9F3292F30E0891720F7A701421BAB
:101B8000530B4A0F5B1FE1CFDF91CF911F91FF9065
:101B9000EF900895E82FF0E0EE0FFF1FEE0FFF1F0C
:101BA000EE0FFF1FE45FFB4FE60FF11D81E0908118
:101BB0009B3F09F0089580E0089590E0880F991FF9
:101BC000880F991F880F991F845F9B4F860F911D67
:101BD000FC0110820895F8945098589A7894F894DB
:101BE0003F98479A7894F8943E98469A7894F89457
:101BF00026982E9A7894F89425982D9A7894F894AB
:101C000024982C9A7894F89457985F9A7894F8943A
:101C100056985E9A7894F89454985C9A7894F894CC
:101C20008198899A7894F89484988C9A7894F89406
:101C300085988D9A7894F89486988E9A7894F894EA
:101C400087988F9A7894F89423982B9A7894F8949C
:101C50002198299A7894F89422982A9A7894E9CE2F
:101C60005F926F927F928F929F92AF92BF92CF922C
:101C7000DF92EF92FF920F931F93CF93DF932DDFAD
:101C80008DEDA82E82E0B82E94E5E92E94E0F92E91
:101C9000812C512CCC24C394D12CF50181915F016E
:101CA000F894E82FE295EF70A1E2AE0FB0E02C912E
:101CB0008F70A60102C0440F551F8A95E2F7CA0132
:101CC000922F982B9C93EE5DF0E090818095892374
:101CD0008083789400C09FB19FB083B19695917036
:101CE000969496949694592D5E71952E992AE0E1DA
:101CF0008E9FC0011124807E980E9094F50131973B
:101D00008081F894E82FE295EF70A1E2AE0FB0E089
:101D10004C918F70960101C0220F8A95EAF7922F9D
:101D2000909594239C93EE5DF0E08081822B8083DC
:101D30007894FAE6FA95F1F700C0D0E0C0E07C2E86
:101D40006C2F882D27DF811123C086010C2E01C046
:101D5000000F0A94EAF7692C6022F7018081802342
:101D60008615B1F041E0611001C040E0FE01EB5288
:101D7000FD4F6081882D0E9403010095F70180814D
:101D8000082306290083672D882D17DF55245394D7
:101D90002196C830D10599F68394FFEFEF1AFF0A18
:101DA00029E082127ACF852DDF91CF911F910F917B
:101DB000FF90EF90DF90CF90BF90AF909F908F906B
:101DC0007F906F905F90089582E084BD93E095BD11
:101DD0009AEF97BD80936E0008952FB7F894809185
:101DE0005D0490915E04A0915F04B09160042FBFE8
:101DF00008959C014FB7F89480915D0490915E0422
:101E0000A0915F04B09160044FBF821B930B0895B3
:101E100078941F921FB61F9211248F939F93AF93B4
:101E2000BF9380915D0490915E04A0915F04B09196
:101E300060040196A11DB11D80935D0490935E0422
:101E4000A0935F04B0936004BF91AF919F918F9175
:101E50001F901FBE1F9018959C01CB01880F991FE2
:101E6000680F791F809A91B39E7F41B34160AFB7ED
:101E7000F89461157105C1F0620F731FF9012F5FAE
:101E80003F4F808158E041BB000007F487FF91BBC2
:101E9000880F000007F407F407F491BB07F45A9584
:101EA00091F76217730751F7AFBF8FEA94E001977C
:101EB000F1F700C000000895CF92DF92FF920F93D8
:101EC0001F93CF93DF938C01EB016A0113D4F82E9B
:101ED00081110FC0C114D104A9F0F6018081918154
:101EE0009E01281B390BF801E80FF91FC817D90705
:101EF00021F58F2DDF91CF911F910F91FF90DF90F2
:101F0000CF9008952097A9F39091E80095FF0BC01A
:101F1000F80191918F019093F100219751F39091E5
:101F2000E80095FDF5CF9091E8009E779093E8004A
:101F3000E1D3882349F3F82EDCCF90E080E0409194
:101F4000E80045FD0FC02091E8002E772093E800BF
:101F5000F60120813181820F931F9183808385E078
:101F6000F82EC7CF41914093F10001962817390709
:101F700031F7BFCFCF92DF92FF920F931F93CF9392
:101F8000DF938C01EB016A01B5D3F82E81110FC0EC
:101F9000C114D104A9F0F601808191819E01281B12
:101FA000390BF801E80FF91FC817D90721F58F2D54
:101FB000DF91CF911F910F91FF90DF90CF90089507
:101FC0002097A9F39091E80095FF0BC09091F10044
:101FD000F80191938F01219751F39091E80095FDBD
:101FE000F5CF9091E8009B779093E80083D3882306
:101FF00049F3F82EDCCF90E080E04091E80045FD09
:102000000FC02091E8002B772093E800F601208193
:102010003181820F931F9183808385E0F82EC7CF93
:102020004091F100419301962817390731F7BFCF4E
:10203000FC01CB0120916B0430916C04261737070B
:1020400018F09B01892BF1F190E02115310521F564
:1020500012C080916404882319F18530D9F18091F0
:10206000E80083FD39C08091E80082FD25C08091A1
:10207000E80080FDCCC09111ECCF1EC0853051F13D
:102080008091E80083FD28C08091E80082FD14C0A3
:102090008091E80080FD22C0809164048111EECF20
:1020A00082E00895809164048823D1F3853091F013
:1020B0008091E80083FD10C08091E80082FFF2CF9C
:1020C00080E008958091E8008E778093E80030E00A
:1020D00020E0BACF83E0089581E008959091F30065
:1020E0008091F200AC018830910508F07EC0DF01DC
:1020F0004D914093F100B90161507109AC014F5FFE
:102100005F4F6115710509F47BC04830510509F432
:102110007BC041814093F100DF011296615071094B
:10212000AC014E5F5F4F6115710509F469C048301D
:10213000510509F469C042814093F1001196615044
:102140007109AC014D5F5F4F6115710509F458C00D
:102150004830510509F458C043814093F10011966D
:1021600061507109AC014C5F5F4F6115710509F455
:1021700047C04830510509F447C044814093F100FD
:10218000119661507109AC014B5F5F4F611571058C
:10219000B9F148305105C1F145814093F1001196E4
:1021A00061507109AC014A5F5F4F6115710541F1E2
:1021B0004830510549F146814093F1001196615034
:1021C0007109AC01495F5F4F61157105C9F0473076
:1021D0005105D1F487818093F10038962850310958
:1021E00048E050E071F048E050E091E0483051059F
:1021F00009F090E08091E8008E778093E80025CF89
:10220000FD0130E020E0F1CF9B01FD01ECCF80919A
:10221000F3004091F200582FE8CFAC01CB012091A0
:102220006B0430916C042617370718F09B01892B3B
:10223000F1F190E02115310521F512C0809164047F
:10224000882319F18530D9F18091E80083FD39C0E8
:102250008091E80082FD25C08091E80080FDC1C02A
:102260009111ECCF1EC0853051F18091E80083FDC3
:1022700028C08091E80082FD14C08091E80080FDB4
:1022800022C0809164048111EECF82E00895809194
:1022900064048823D1F3853091F08091E80083FDB8
:1022A00010C08091E80082FFF2CF80E00895809115
:1022B000E8008E778093E80030E020E0BACF83E03A
:1022C000089581E008959091F3008091F200BC019F
:1022D0008830910508F073C0FA0164916093F100B1
:1022E0003196D9011197BC016F5F7F4F109709F4A8
:1022F00071C06830710509F471C0E491E093F10098
:10230000FA01329611976F5F7F4F109709F462C000
:102310006830710509F462C0E491E093F100FA01BC
:10232000339611976F5F7F4F109709F453C0683051
:10233000710509F453C0E491E093F100FA01349679
:1023400011976F5F7F4F109709F444C06830710593
:1023500009F444C0E491E093F100FA013596119735
:102360006F5F7F4F109709F435C06830710509F42D
:1023700035C0E491E093F100FA01369611976F5F52
:102380007F4F109739F16830710541F1E491E09386
:10239000F100FA01379611976F5F7F4F1097D1F0D8
:1023A00067307105D9F4E491E093F100485F5F4F25
:1023B0002850310968E070E071F068E070E091E069
:1023C0006830710509F090E08091E8008E77809385
:1023D000E80030CFAF0130E020E0F1CF9D01AF0148
:1023E000ECCF8091F3006091F200782FE8CF873036
:1023F00008F00BC18093E90041FF19C09091EB00F8
:102400009E7F9093EB009091ED009D7F9093ED0067
:102410009091EB0091609093EB006093EC004093FF
:10242000ED001092F0009091EE0097FFF3C091E064
:10243000980F863009F4E9C09093E9004091EC00D0
:102440009091ED003091F00091FF19C02091EB00C8
:102450002E7F2093EB002091ED002D7F2093ED0047
:102460002091EB0021602093EB004093EC009093CF
:10247000ED003093F0009091EE0097FFCBC092E01A
:10248000980F853009F4C1C09093E9004091EC00A9
:102490002091ED003091F00021FF19C09091EB00E8
:1024A0009E7F9093EB009091ED009D7F9093ED00C7
:1024B0009091EB0091609093EB004093EC0020939F
:1024C000ED003093F0009091EE0097FFA3C093E0F1
:1024D000980F843009F499C09093E9004091EC0082
:1024E0009091ED003091F00091FF19C02091EB0028
:1024F0002E7F2093EB002091ED002D7F2093ED00A7
:102500002091EB0021602093EB004093EC0090932E
:10251000ED003093F0009091EE0097FF7BC094E0C7
:10252000980F833009F471C09093E9004091EC005A
:102530002091ED003091F00021FF19C09091EB0047
:102540009E7F9093EB009091ED009D7F9093ED0026
:102550009091EB0091609093EB004093EC002093FE
:10256000ED003093F0009091EE0097FF53C095E09E
:10257000980F823009F449C09093E9005091EC0023
:102580002091ED004091F00021FF19C03091EB0047
:102590003E7F3093EB003091ED003D7F3093ED00B6
:1025A0003091EB0031603093EB005093EC002093BE
:1025B000ED004093F0002091EE0027FF2BC09530F6
:1025C00021F596E09093E9004091EC009091ED00A8
:1025D0003091F00091FF19C02091EB002E7F2093E5
:1025E000EB002091ED002D7F2093ED002091EB007A
:1025F00021602093EB004093EC009093ED0030932A
:10260000F0009091EE0097FF05C08F708093E90075
:1026100081E0089580E008950F931F93CF93DF9397
:10262000662309F440C0EC0161508C010B5F1F4F21
:1026300025E0629F000D111D112404C025960C1782
:102640001D0789F198819923C9F3892F8F708730ED
:1026500020F52C8142E052E0223010F046E056E0B6
:1026600069817A816930710560F028E030E040E0EE
:102670004F5F220F331F26173707D0F34295407F55
:10268000452B6B8120E4629FB0011124991F99278B
:10269000991F692BACDE8111D1CF80E0DF91CF9102
:1026A0001F910F91089581E0DF91CF911F910F91BC
:1026B00008958091650487FF05C012C0809164046D
:1026C000882349F08091E80080FFF8CF8091E800EE
:1026D0008E778093E8000895809164048823D9F36D
:1026E0008091E80082FFF8CF8091E8008B7780939B
:1026F000E80008958091E4009091E50025E6AC01A2
:102700009091EC00892F817090FD19C09091E800A4
:1027100092FD1CC0809164048823C9F08530C9F003
:102720008091EB0085FD11C08091E4009091E5005F
:102730004817590729F3215011F784E00895809133
:10274000E80080FFE7CF80E0089581E0089582E00F
:10275000089583E008950F931F93CF93DF934BD099
:1027600052D0C8EDD0E088818F77888388818068D7
:10277000888388818F7D888319BC109264041092AD
:102780006304109261041092620400EE10E0F801FC
:1027900080818B7F808388818160888342E060E0D4
:1027A00080E025DEE1EEF0E080818E7F8083E2EE46
:1027B000F0E0808181608083808188608083F8017F
:1027C00080818E7F8083888180618883DF91CF9133
:1027D0001F910F910895E8EDF0E080818F7E808356
:1027E000E7EDF0E080818160808384E082BF81E05A
:1027F00080936D04B0CFE8EDF0E080818E7F808320
:102800001092E20008951092DA001092E10008950B
:102810001F920F920FB60F9211242F933F934F9355
:102820005F936F937F938F939F93AF93BF93EF9338
:10283000FF938091E10082FF04C08091E20082FD5D
:1028400092C08091DA0080FF04C08091D80080FDA2
:1028500050C08091E10080FF04C08091E20080FDC3
:1028600089C08091E10084FF2BC08091E20084FF49
:1028700027C080E189BD82E189BD09B400FEFDCF9A
:102880008091D8008F7D8093D8008091E1008F7E69
:102890008093E1008091E2008F7E8093E20080913E
:1028A000E20081608093E20080916304811177C02F
:1028B0008091E30087FD7DC081E0809364043FD276
:1028C0008091E10083FF04C08091E20083FD27C076
:1028D000FF91EF91BF91AF919F918F917F916F91F8
:1028E0005F914F913F912F910F900FBE0F901F90CE
:1028F00018958091DA008E7F8093DA008091D9005C
:1029000080FF51C080E189BD82E189BD09B400FE2C
:10291000FDCF81E0809364040E945C019ACF809196
:10292000E100877F8093E10082E08093640410924D
:1029300063048091E1008E7F8093E1008091E2004A
:102940008E7F8093E2008091E20080618093E200BC
:1029500042E060E080E04BDD8091F0008860809391
:10296000F000EDD1B5CF8091E1008B7F8093E10045
:10297000E6D167CF8091E2008E7F8093E200809164
:10298000E20080618093E2008091D80080628093B1
:10299000D80019BC85E080936404D1D162CF84E073
:1029A000809364048CCF19BC109264040E945D0172
:1029B00050CF83E082CF1F920F920FB60F92112457
:1029C0002F933F934F935F936F937F938F939F9337
:1029D000AF93BF93CF93EF93FF93C091E900CF7074
:1029E0008091EC0080FDC0681092E9008091F000B9
:1029F000877F8093F00078941CD01092E90080913A
:102A0000F00088608093F000CF70C093E900FF91E0
:102A1000EF91CF91BF91AF919F918F917F916F91E6
:102A20005F914F913F912F910F900FBE0F901F908C
:102A300018951F93CF93DF93CDB7DEB7AA970FB644
:102A4000F894DEBF0FBECDBF8091F1008093650486
:102A50008091F100809366048091F1008093670477
:102A60008091F100809368048091F1008093690463
:102A70008091F10080936A048091F10080936B044F
:102A80008091F10080936C040E9462018091E800C3
:102A900083FF11C09091650480916604853009F42C
:102AA000C2C008F1883009F473C0893009F045C00C
:102AB000992309F4D8C08091E80083FF0AC080916F
:102AC000E800877F8093E8008091EB00806280932C
:102AD000EB00AA960FB6F894DEBF0FBECDBFDF9114
:102AE000CF911F910895282F2D7F213009F463C0C5
:102AF0008111E1CF903809F4DDC09238E1F6809180
:102B000069048F708730B8F68093E9008091EB00FC
:102B100085FB882780F91092E9009091E800977F63
:102B20009093E8008093F1001092F1008091E8000A
:102B30008E778093E800BDDDBECF863009F0BBCF35
:102B40009058923008F0B7CF809167049091680454
:102B50008C3D23E0920709F4B8C06091690470913C
:102B60006A04AE014F5F5F4F0E94C700BC01892B12
:102B700009F4A1CF8091E800877F8093E8008981E4
:102B80009A814BDB8091E8008B778093E80093CFAC
:102B9000903809F090CF8091E800877F8093E8001B
:102BA000809163048093F1008091E8008E77809398
:102BB000E8007FDD80CF992309F470C0923009F0DE
:102BC0007ACF90916704911125C0909169049F700C
:102BD0002FEF290F263008F06ECF9093E900209157
:102BE000EB0020FF17C0833009F4A3C08091EB00F5
:102BF00080618093EB0021E030E001C0220F9A95C4
:102C0000EAF72093EA001092EA008091EB008860D6
:102C10008093EB001092E9008091E800877F809319
:102C2000E80047DD48CF911146CF109167041F7728
:102C30008091E3008078812B8093E3008091E8000D
:102C4000877F8093E80035DD8091E80080FFFCCF2E
:102C50008091E30080688093E30082E0111183E0BB
:102C60008093640428CF80916704823008F023CFDA
:102C70009091E800977F9093E8008093630419DDBA
:102C80008091630481111FC08091E30087FD1BC008
:102C900081E0809364040E945E010DCF90916704EF
:102CA000913009F008CF91E0833009F090E09093E3
:102CB0006104B0CF8091620490916104992309F47A
:102CC0002CCF82602ACF84E0E4CF83E08A838AE23B
:102CD00089835FB7F894DE01139620E03EE041E27D
:102CE0000AC08F708A3090F0895C90E08D939D933C
:102CF0002F5F243169F0E32FF0E040935700849177
:102D000020FFEFCF82958F703F5FECCF805DEDCFDE
:102D10005FBF8091E800877F8093E8006AE270E0FF
:102D2000CE01019685D98091E8008B778093E800E9
:102D3000C2CE8091EB0080628093EB006BCF089550
:102D4000CF93DF93EC011B8682E08C83898761E05F
:102D5000CE01019661DC811104C080E0DF91CF914A
:102D6000089561E0CE010696DF91CF9155CCFC012C
:102D7000CB0120916404243011F082E00895218178
:102D80002F702093E90050E040E064E070E094D8B8
:102D90008111F4CF9091E80095FDF0CF9091E8007B
:102DA0009E779093E8000895FC018091640484303C
:102DB00091F481818F708093E9009091F30080916C
:102DC000F200892B11F480E008958091E8008E775D
:102DD0008093E8008FCC82E00895FC018091640428
:102DE000843039F481818F708093E9008091E8000C
:102DF00080FF0895CF01D8CFFC01CB01209164045E
:102E0000243061F426812F702093E9002091E8009E
:102E100022FF04C02091E80025FD02C080E0089553
:102E200050E040E064E070E0A5D88091E80085FDC6
:102E300007C08091E8008B778093E80081E00895D7
:102E400081E00895A1E21A2EAA1BBB1BFD010DC053
:102E5000AA1FBB1FEE1FFF1FA217B307E407F5074A
:102E600020F0A21BB30BE40BF50B661F771F881F26
:102E7000991F1A9469F760957095809590959B01BC
:102E8000AC01BD01CF010895A29FB001B39FC00165
:102E9000A39F700D811D1124911DB29F700D811D86
:0A2EA0001124911D0895F894FFCF4E
:102EAA0001824000000101400000010064000003AB
:102EBA0001000103010001030100010301000103F4
:102ECA0001000103010001030100010301080000E0
:102EDA0003010100030101000301010003010100D4
:102EEA0003010100030101000301010003010700BE
:102EFA0000030100FF030100FF030100FF030100BB
:102F0A00FF030100FF030100FF030100FF030105A6
:102F1A000000030100010301000103010001030194
:102F2A000001030100010301000103010001030183
:102F3A00080000030100010301000103010001036D
:102F4A000100010301000103010001030100010363
:102F5A00010800000301000103010001030100014F
:102F6A000301000103010001030100010301000143
:102F7A000301080524010302870C880C860C890CBE
:102F8A00940C950C970C980C9A0CAC0CAD0CAE0CDE
:102F9A00F50CAF0CF40CF60CF70C180DF80C170D19
:102FAA00102040647FE201D801F601EC0100000024
:102FBA0000000000000000000000000000FF000008
:102FCA0000000000FF0000FF00FF00000000FF00FB
:102FDA00FF000000000001000000000000000000E7
:102FEA000000000000000000FF00000000FF0000D9
:102FFA000000FF00FF0000FF00FF0000FF00FF00CD
:10300A00FF00FF00010000FF00FF000100000000B8
:10301A000000000000000102030405060700020484
:10302A0006080A0C0E000306090C0F121500040804
:10303A000C1014181C00050A0F14191E2300060C84
:10304A0012181E242A00070E151C232A3100081004
:10305A0018202830380009121B242D363F000A1484
:10306A001E28323C46000B16212C37424D0007021F
:10307A0009040B060D0001020304060705906766A2
:06308A00363534979694E0
:00000001FF
