:10000000A9C00000C3C00000C1C00000BFC0000004
:10001000BDC00000BBC00000B9C00000B7C00000F8
:10002000B5C00000B3C000000C94C3140C94961526
:10003000ADC00000ABC00000A9C00000A7C0000018
:10004000A5C00000A3C00000A1C000009FC0000028
:100050009DC000000C94C30F99C0000097C0000021
:1000600095C0000093C0000091C000008FC0000048
:100070008DC000008BC0000089C0000087C0000058
:1000800085C0000083C0000081C000007FC0000068
:100090007DC000007BC0000079C0000077C0000078
:1000A00075C0000073C0000071C00000140366003A
:1000B0006500750069006C006C0065003600340056
:1000C0000000140366006500750069006C006C0098
:1000D00065003600340000000403090409026500CD
:1000E000020100C0320904000000010100000924DF
:1000F00001000109000101090401000201030000DF
:100100000724010001410006240201010006240227
:100110000202000924030103010201000924030271
:100120000401010100090501024000050000052548
:1001300001010109058202400005000005250101B9
:100140000312011001000000083412010001000137
:100150000200010011241FBECFEFDAE0DEBFCDBFE9
:1001600012E0A0E0B1E0E0E2F0E302C005900D9201
:10017000A63EB107D9F724E0A6EEB2E001C01D9279
:10018000AF36B207E1F767D00C940E1839CF9C0157
:10019000DA01832F99278230910511F1833091057F
:1001A00081F0019739F090E080E030E020E02D937D
:1001B0003C93089582E190E021E431E02D933C935B
:1001C0000895C90199272130C1F08230910579F055
:1001D000892B49F7E8EDF0E0849190E09F01E7CFAB
:1001E00085E690E02CED30E02D933C930895ECEA09
:1001F000F0E0849190E09F01DACFE2ECF0E08491AE
:1002000090E09F01D4CFEAC784B7877F84BF0FB641
:10021000F894A895809160008861809360001092A6
:1002200060000FBE85B7806885BF85B7806885BFD1
:1002300080E890E00FB6F89480936100909361009D
:100240000FBE0E949F0F11D7F3D70E94A60E0E94E7
:10025000A6140C947B09CDB7DEB728970FB6F89497
:10026000DEBF0FBECDBFD0DF789459D777D70E94BD
:10027000A80F7C010E94A80F8C010E94EB0E7CD776
:1002800008C089819A81AB81BC81BC01CD010E94EB
:10029000B909BE016F5F7F4F80E091E00E94B71700
:1002A0008111EFCF80E091E00E94A817C7010E9462
:1002B000B40F4497F8F2C7D77801DCCF08950895BA
:1002C00080E091E00C945B170895EF92FF920F93FA
:1002D0001F93CF93DF93EC018091EA02681709F432
:1002E0005EC08091E902882309F4C2C18091F502C1
:1002F000681709F4F8C08091F402882309F4E8C172
:1003000080910003681709F405C18091FF028823DA
:1003100009F4D2C180910B03681709F412C18091CE
:100320000A03882309F4BCC180911603681709F4F5
:100330001FC180911503882309F48EC18091210388
:10034000681709F42CC180912003882309F478C12F
:1003500080912C03681709F439C180912B038823FD
:1003600009F462C180913703861709F446C14091B0
:100370003603442309F488C1188219821A821B8229
:100380001C821D821E821F82188619861A86CE0143
:10039000DF91CF911F910F91FF90EF900895809181
:1003A000EB0248139ECF8091E902E090EC02F090BE
:1003B000ED020091EE021091EF027091F002509167
:1003C000F1023091F2022091F3029BE0E4EFF2E0BF
:1003D000A9EEB2E001900D929A95E1F79091E902B1
:1003E000992309F44FC19BE0EFEFF2E0A4EFB2E0F4
:1003F00001900D929A95E1F79091F402992309F4F6
:1004000071C19BE0EAE0F3E0AFEFB2E001900D9242
:100410009A95E1F79091FF02992309F457C19BE067
:10042000E5E1F3E0AAE0B3E001900D929A95E1F7DF
:1004300090910A03992309F43DC19BE0E0E2F3E0C7
:10044000A5E1B3E001900D929A95E1F79091150323
:10045000992309F40BC19BE0EBE2F3E0A0E2B3E0E7
:1004600001900D929A95E1F790912003992309F458
:10047000F1C09BE0E6E3F3E0ABE2B3E001900D9264
:100480009A95E1F790912B03992309F4D7C0109224
:1004900036031092370310923803109239031092EA
:1004A0003A0310923B0310923C0310923D031092CA
:1004B0003E0310923F031092400397E09093E802AE
:1004C000888369834A83EB82FC820D831E837F834A
:1004D000588739872A87CE01DF91CF911F910F91DD
:1004E000FF90EF9008958091F602481304CF809119
:1004F000F402E090F702F090F8020091F9021091F6
:10050000FA027091FB025091FC023091FD022091A1
:10051000FE0269CF809101034813F7CE8091FF025C
:10052000E0900203F090030300910403109105038F
:10053000709106035091070330910803209109033D
:1005400060CF80910C034813EACE80910A03E090BB
:100550000D03F0900E0300910F03109110037091A2
:10056000110350911203309113032091140357CFBC
:10057000809117034813DDCE80911503E090180396
:10058000F090190300911A0310911B0370911C0342
:1005900050911D0330911E0320911F034ECF809177
:1005A00022034813D0CE80912003E0902303F090E3
:1005B0002403009125031091260370912703509185
:1005C00028033091290320912A0345CF80912D03E0
:1005D0004813C3CE80912B03E0902E03F0902F039D
:1005E0000091300310913103709132035091330325
:1005F00030913403209135033CCF8091380384132C
:10060000B6CE80913603E0903903F0903A03009122
:100610003B0310913C0370913D0350913E03309198
:100620003F032091400333CF20E030E050E070E002
:1006300010E000E0F12C60E040E0E12C96E03ECFDD
:1006400020E030E050E070E010E000E0F12C60E0ED
:1006500040E0E12C95E032CF20E030E050E070E067
:1006600010E000E0F12C60E040E0E12C94E026CFC7
:1006700020E030E050E070E010E000E0F12C60E0BD
:1006800040E0E12C90E01ACF20E030E050E070E054
:1006900010E000E0F12C80E060E0E12C97E00ECF6C
:1006A00020E030E050E070E010E000E0F12C60E08D
:1006B00040E0E12C93E002CF20E030E050E070E039
:1006C00010E000E0F12C60E040E0E12C92E0F6CE9A
:1006D00020E030E050E070E010E000E0F12C60E05D
:1006E00040E0E12C91E0EACEAF92BF92CF92DF9250
:1006F000EF92FF920F931F93CF93DF93CDB7DEB7A7
:100700002B970FB6F894DEBF0FBECDBF8C01E62E3F
:10071000F42E8091E8028830F0F59BE0899FF0018B
:100720001124E751FD4F91E090836183428313824E
:10073000148215826683178240871186128690E0A4
:1007400020E030E040E050E060E070E0A0E0B0E0A9
:10075000D12CC12C8F5F8093E802F801C082D18236
:10076000B283A3837483658356834783308721874D
:100770009287C8012B960FB6F894DEBF0FBECDBF8F
:10078000DF91CF911F910F91FF90EF90DF90CF906D
:10079000BF90AF9008954091EB026091EA02CE01C4
:1007A000019693DDC980DA80BB81AC817D816E8149
:1007B0005F81488539852A859B858091E802EBE039
:1007C0008E9F50011124F501E751FD4FBB24B394D6
:1007D000B082E182F282138214821582E68217824D
:1007E000F08611861286B6CFE9EEF2E01082118211
:1007F0001282138214821582168217821086118645
:10080000128613861486158616861786108A118A14
:10081000128A138A148A158A168A178A108E118EE4
:10082000128E138E148E158E168E178E10A211A294
:1008300012A213A214A215A216A217A210A611A604
:1008400012A613A614A615A616A617A610AA11AAD4
:1008500012AA13AA14AA15AA16AA17AA10AE11AEA4
:1008600012AE13AE14AE15AE16AE17AE109229032B
:1008700010922A0310922B0310922C0310922D0336
:1008800010922E0310922F03109230031092310316
:1008900010923203109233031092340310923503F6
:1008A00010923603109237031092380310923903D6
:1008B00010923A0310923B0310923C0310923D03B6
:1008C00010923E0310923F03109240031092E802F0
:1008D00008958F929F92AF92BF92CF92DF92EF9244
:1008E000FF920F931F93CF93DF9300D000D00F920E
:1008F000CDB7DEB7C2D3811112C00F900F900F9009
:100900000F900F90DF91CF911F910F91FF90EF907B
:10091000DF90CF90BF90AF909F908F900895D3D3EA
:100920009091E7029111E9CF9BEA899FD12C112484
:10093000D694D6949D2D990FD90EDD0C8D19D82EF5
:1009400009EE12E081E4E82E83E0F82E9BEAC92E3E
:10095000BB24B3942EE0822E3CE0932E42E0A42EE2
:1009600007C0823061F0055F1F4FE016F10629F2E3
:10097000F80180818130A9F7D110F5CFA082F8016C
:1009800093819C9D802D1124865D80FB879587F93E
:100990008B3208F04DC08581811156C0F8018285E7
:1009A000811106C09181968317829281908711866A
:1009B000EFD43A834B836D835523B1F1F801B582AF
:1009C0009681878181112195290F27FD3AC0273013
:1009D00024F0F92DF21B2F2F8B25F8012683878316
:1009E000908581856A8181116195690F67FD3AC0A3
:1009F000683024F0F82DF61B6F2F8B25F8016087E7
:100A0000818786818CD6682FF8018483EB81F0E0A2
:100A1000E050FE4F20E0408181E077D4F8018681EC
:100A20004FE060858F5F34D48D81F8018287938198
:100A300081E0890FF8019F3511F0838394CF1382F1
:100A400092CF21958B25C9CF20E040E4648180E0DE
:100A50005CD4F801868140E060858F5F19D4F8018D
:100A600015829CCF61958B25C9CFCF92DF92EF92F3
:100A7000FF920F931F93CF93DF93CDB7DEB72B97E2
:100A80000FB6F894DEBF0FBECDBF182F062F809192
:100A9000E602462F612F8823C9F0CE0101967C0122
:100AA00014DC8E8181116BC089818823B1F02B9673
:100AB0000FB6F894DEBF0FBECDBFDF91CF911F916F
:100AC0000F91FF90EF90DF90CF900895CE010196A7
:100AD0007C01FBDB8E81811145C0402F612FC70156
:100AE00003DE8E81811131C08091E7028823F9F203
:100AF000E090E802EA949BE0E99E70011124F7017E
:100B0000E751FD4F7F0182E0808381E08583602F84
:100B1000812F05D6682FF701848320E040E481E02F
:100B2000F4D3F70186814FE060858F5F2B960FB677
:100B3000F894DEBF0FBECDBFDF91CF911F910F9113
:100B4000FF90EF90DF90CF90A3C3FF80E98420E077
:100B500040E46D8180E0D9D340E06E2D81E08F0DBF
:100B600097D3C2CFDF80C98420E040E46D8180E06C
:100B7000CCD340E06C2D81E08D0D8AD3AECFDF80E9
:100B8000C98420E040E46D8180E0BFD340E06C2D5B
:100B900081E08D0D7DD388CFFF920F931F93CF936C
:100BA000DF93CDB7DEB72B970FB6F894DEBF0FBE3D
:100BB000CDBF9091E602992361F02B960FB6F89481
:100BC000DEBF0FBECDBFDF91CF911F910F91FF9080
:100BD0000895462F682FCE01019677DB8E818823FA
:100BE00061F30D81F9841F811F5F8091E7028823E3
:100BF000B9F140E06F2D812F4BD38091EE02882315
:100C000021F08091ED028017C1F28091F9028823D2
:100C100021F08091F802081781F280910403882363
:100C200021F080910303081741F280910F0388237C
:100C300029F080910E03081709F4BFCF80911A03A1
:100C4000882329F080911903081709F4B6CF809101
:100C50002503882329F080912403801709F4ADCF60
:100C600020E040E4602F80E050D340E06F2D812FE2
:100C70002B960FB6F894DEBF0FBECDBFDF91CF919C
:100C80001F910F91FF9004C31092E9028091EE0230
:100C900081113BC01092EE021092F4028091F90291
:100CA000811149C01092F9021092FF028091040351
:100CB000811157C01092040310920A0380910F0310
:100CC000811165C010920F031092150380911A03D1
:100CD000811173C010921A03109220038091250392
:100CE000811181C01092250310922B038091300353
:100CF00081118FC0109230031092360380913B0314
:100D000081119DC010923B03089520E040E4609162
:100D1000ED0280E0FAD28091EF0240E06091F102B2
:100D20008F5FB6D21092EE021092F4028091F90217
:100D3000882309F4B7CF20E040E46091F80280E016
:100D4000E4D28091FA0240E06091FC028F5FA0D271
:100D50001092F9021092FF0280910403882309F493
:100D6000A9CF20E040E46091030380E0CED28091DF
:100D7000050340E0609107038F5F8AD2109204035D
:100D800010920A0380910F03882309F49BCF20E07F
:100D900040E460910E0380E0B8D28091100340E0FF
:100DA000609112038F5F74D210920F03109215039B
:100DB00080911A03882309F48DCF20E040E46091EC
:100DC000190380E0A2D280911B0340E060911D03D3
:100DD0008F5F5ED210921A03109220038091250338
:100DE000882309F47FCF20E040E46091240380E071
:100DF0008CD28091260340E0609128038F5F48D217
:100E00001092250310922B0380913003882309F45C
:100E100071CF20E040E460912F0380E076D2809192
:100E2000310340E0609133038F5F32D21092300380
:100E30001092360380913B03882309F463CF20E0AE
:100E400040E460913A0380E060D280913C0340E04E
:100E500060913E038F5F1CD210923B030895CF93A5
:100E6000C82F8091E70281110CC0C9D2682F40E0E1
:100E700080E00ED28C2FC0D24FE06C2F80E0CF915B
:100E800007C21092E70240E066E080E001D2EDCFB9
:100E90000F93FADE8091E702811110C0B0D2682F63
:100EA00040E080E0F5D181E08093E70200E120E0BE
:100EB00040E066E080E0CCD10F910895A0D2CFDF72
:100EC0008091E702811108C000E020E040E066E088
:100ED00080E0BED10F91089500E1E9CF8091E60254
:100EE00091E089278093E602882321F04FE067E0B4
:100EF00080E0CEC1C9DE8091E6028111F7CF40E0EB
:100F000067E080E0C5C10F9380E0E1D178D2682F1F
:100F10004FE080E0BDD18091E70200E0811100E167
:100F200020E040E066E080E093D18091E60240E07E
:100F300081114FE067E080E0ABD18091EE0281113A
:100F40001EC08091F902811124C080910403811197
:100F50002AC080910F03811130C080911A03811142
:100F600036C08091250381113DC0809130038111ED
:100F700044C080913B0381114BC00F9108954FE015
:100F80006091F1028091EF0283D18091F902882370
:100F9000E1F24FE06091FC028091FA0279D18091F8
:100FA00004038823B1F24FE06091070380910503A9
:100FB0006FD180910F03882381F24FE0609112037B
:100FC0008091100365D180911A03882351F24FE07C
:100FD00060911D0380911B035BD1809125038823C1
:100FE00009F4C3CF4FE0609128038091260350D1CC
:100FF00080913003882309F4BCCF4FE06091330324
:101000008091310345D180913B03882309F4B5CF0A
:101010004FE060913E0380913C030F9139C18C33C6
:10102000D8F49CE390930C0110924403282F30E0F5
:1010300050E040E068E679E889E090E00E94DD1742
:101040002150310930938900209388001092850047
:1010500010928400B19A0895893C20F098EC909306
:101060000C01E2CF80930C01DFCF109280008BE067
:101070008093810080910C01D2CF8091430388231B
:1010800061F0909141039923A9F020914403920FBC
:1010900090934403109241030895B19B0CC0B19A00
:1010A0008091440391E0980F8F3531F09093440381
:1010B00081E0089580E008951092440381E008954E
:1010C00080910C01089580914403089580910C0152
:1010D000A6CF8093430381110895F8CF80914303F5
:1010E000089580914303882329F01092410381E001
:1010F000809342030895809143038111109242032B
:10110000089580914303882349F080914203882306
:1011100029F0809141038F5F8093410308951092DD
:101120004503E091E201F091E3010995E091D801D6
:10113000F091D9010995E091F601F091F701099537
:10114000E0914503F0E0EE0FFF1FEB5FFD4F0190D4
:10115000F081E02D0280F381E02D0994E0914503B8
:10116000F0E0EE0FFF1FEB5FFD4F0190F081E02DEF
:101170000280F381E02D0994E0914503F0E0EE0F49
:10118000FF1FEB5FFD4F0190F081E02D0480F581A2
:10119000E02D0994CF93C82FE0914503E817E1F0C3
:1011A000F0E0EE0FFF1FEB5FFD4F0190F081E02DAF
:1011B0000084F185E02D0995C0934503EC2FF0E004
:1011C000EE0FFF1FEB5FFD4F0190F081E02D0280DD
:1011D000F381E02DCF910994CF91089581110BC037
:1011E0004423D1F0633011F1A0F46130E9F06230B2
:1011F000A1F482E0CFCFE0914503F0E0EE0FFF1FB6
:10120000EB5FFD4F0190F081E02D0680F781E02D2E
:1012100009946D7F653029F00895611104C080E064
:10122000B9CF80E08FC0089581E0B4CF83E0B2CF22
:10123000E6E4F3E0108211821282339684E0E63015
:10124000F807C1F7089560E470E086E493E0BFC654
:101250000F93E82FF0E0EE0FFF1FEE0FFF1FEE0FD2
:10126000FF1F70E080FF06C087E090E0DC01A61B56
:10127000B70BBD016E0F7F1FFB01EE0FFF1FE60FC7
:10128000F71FEA5BFC4F2083418302830F9108958F
:10129000E82FF0E0EE0FFF1FEE0FFF1FEE0FFF1F16
:1012A00070E080FF06C087E090E09C01261B370BB2
:1012B000B901440F6E0F7F1FFB01EE0FFF1FE60FFA
:1012C000F71FEA5BFC4F40834183428308951F93DD
:1012D000CF93DF93182FD0E0C0E0412F6C2F8D2FDC
:1012E000D7DFCF5FC830C9F7DF5FD830A9F7DF910C
:1012F000CF911F9108950895BC0180E091E00E9474
:10130000721780E091E00C948F17CF93DF9300D099
:1013100000D0CDB7DEB7922F811111C088E020E850
:101320008983292B2A836B834C83CE010196E4DFCA
:101330000F900F900F900F90DF91CF91089589E05B
:1013400020E9EECFCF93DF9300D000D0CDB7DEB74A
:101350009BE09983806B8A838BE78B831C82CE0111
:101360000196CADF0F900F900F900F90DF91CF91F1
:1013700008957A3F29F07C3F29F0783F11F00895D5
:10138000B0CEBFCEB8DE80E0DDCF10920604089567
:10139000CF93DF9300D000D00F92CDB7DEB7682F88
:1013A00080910604E62FF0E0EE0FFF1FEE0FFF1F07
:1013B00021E2829FC0011124E80FF91FE35FFE4F75
:1013C00030817181528143816F5F835F9E4FFC0149
:1013D00080A1681708F060E0232F4C83372F452F3A
:1013E0005C8170E080E090E00F900F900F900F9084
:1013F0000F90DF91CF910895809306040895809116
:1014000006040895CF93DF9300D000D0CDB7DEB7A8
:10141000E82FF0E080910604EE0FFF1FEE0FFF1F94
:1014200091E2899FE00DF11D1124E35FFE4F808161
:101430009181A281B381BC01CD010F900F900F90DB
:101440000F90DF91CF910895E091060481E2E89F2B
:10145000F0011124E35FFE4F80A1089590910604EE
:10146000E82FF0E0EE0FFF1FEE0FFF1F81E2989FC5
:10147000E00DF11D1124E35FFE4F60834183089569
:10148000E82FF0E080910604EE0FFF1FEE0FFF1F24
:1014900091E2899FE00DF11D1124E35FFE4F62830D
:1014A0000895E091060491E2E99FF0011124E35FC1
:1014B000FE4F80A3089590910604E82FF0E0EE0F10
:1014C000FF1FEE0FFF1F81E2989FE00DF11D112419
:1014D000E35FFE4F838191E08927838308950F9313
:1014E000CF93C82F80E0F3DE00E020E040E26C2FD5
:1014F00080E0AEDE8C2F80DF10920904CF910F9137
:1015000008957DDFECCFCF93DF93D82FC62F909136
:101510000904609107048091080491111CC040E007
:101520008F5FB6DE4FE06C2F81E08D0FB1DED09380
:101530000804C09307048091090491E0980F873054
:1015400029F090930904DF91CF9108951092090436
:10155000DF91CF9108954C2F461B6D2F681B892F6B
:101560007DDF6091070480910804D9CF0F931F930A
:10157000CF93DF93D82F46DFC82F40E0911140E191
:1015800000E020E06D2F86E063DE15E01C1BC1E06B
:1015900040E0C11708F04FE06D2F8C2F79DECF5F50
:1015A000C630B1F7DF91CF911F910F9108950F933E
:1015B000CF93DF9349DFDFEFD80FC0E000E0DC1707
:1015C00008F000E120E040E06C2F87E041DECF5FD3
:1015D000C830A1F7DF91CF910F9108950F93CF936A
:1015E00080E075DE0CDF682F00E020E240E080E064
:1015F0002FDEC0E08C2FBADFCF5FC830D9F7CF9194
:101600000F91D5CFFCDEEACFCF93C82F39DF8C2FD7
:10161000CF91ACCFCF93C82F4EDF8C2FCF91A6CFD9
:1016200040DFC5CF8093D70108958093D6010895F8
:101630008093D50108958093D40108958093D301B8
:1016400008958091D70108958091D60108958091E1
:10165000D50108958091D40108958091D301089512
:10166000CF92DF92EF920F9350E0440F551F440F3B
:10167000551F440F551F43595D4F480F511D30E012
:10168000220F331F220F331F220F331F23593D4FC9
:10169000260F311DFA018081F9019081890F002305
:1016A000C1F12BEA829F912D1124392F3695369561
:1016B0003695932F990F930F990F990FE82FE91BE8
:1016C000F0E0EF59FD4F9081890FD12C829F912D31
:1016D0001124969596959695292F220F920F990F82
:1016E000990FF82FF91B9F2FF601EE0FFF1FEC0D3E
:1016F000FD1DEE0FFF1FEE0FFF1FE35FFD4FE90F14
:10170000F11DE80E80818E0D0F91EF90DF90CF904C
:1017100008958E0D0F91EF90DF90CF900895CF92A6
:10172000EF920F93C090D301E090D4010091D501C6
:101730002091D6014091D70193DF0F91EF90CF9088
:1017400008958F929F92AF92BF92CF92DF92EF92C5
:10175000FF920F931F93CF93DF93982E862EC42E64
:10176000D22E102FD62FB12CA12C7501C0E00CC0A9
:10177000012F2D2D4C2D6C2F8D2F6ADDCF5F8FEF1C
:10178000E81AF80AC83071F08DE0E816F10484F325
:1017900040E06C2F8D2F7CDDCF5F8FEFE81AF80AC9
:1017A000C83091F7DF5F88E0A80EB11C80E1A81671
:1017B000B104D9F687E0692D891508F46770892D81
:1017C00086958695869500E120E140E1880D40DD13
:1017D000DF91CF911F910F91FF90EF90DF90CF900D
:1017E000BF90AF909F908F900895EF92FF920F93CC
:1017F000CF93C0E000E020E140E16C2F84E028DDE1
:10180000CF5FC830B9F788E0E82EF12CC0E00BC0FC
:1018100020E140E16C2F85E01BDDCF5F9FEFE91AEF
:10182000F90AC83081F000E08CE0E816F10480F39A
:1018300020E040E06C2F85E00BDDCF5F9FEFE91AE1
:10184000F90AC83081F706DFC82F8BEAC89F812DBF
:101850001124869586958695982F990F890F880F64
:10186000880F9C2F981B892F692F983008F067707C
:1018700086958695869500E120E140E18C5FE8DC65
:101880008BEAC89FC12D1124C695C695C695EC2E2E
:10189000C3FD0BC0E2FC10C0E1FC16C0C0FD1CC0C3
:1018A000CF910F91FF90EF90089520E040E064E029
:1018B00085E0CEDCE2FEF0CF00E120E040E065E034
:1018C00085E0C6DCE1FEEACF00E120E040E066E032
:1018D00085E0BEDCC0FFE4CF00E120E040E067E04F
:1018E00085E0B6DCCF910F91FF90EF9008950F93B4
:1018F000CF93C0E000E120E040E16C2F86E0A8DC5F
:10190000CF5FC730B9F7A9DE682F20E140E186E05C
:101910009FDCCF910F9108950F9399DE40E08111E4
:1019200040E100E020E067E086E092DC0F9108955E
:10193000DF92EF92FF920F931F93CF93DF93CEDB53
:10194000882391F0C0E000E020E040E16C2F87E0C8
:101950007FDCCF5FC830B9F7DF91CF911F910F9136
:10196000FF90EF90DF900895ABDBE82EF12CC7E0FD
:10197000D0E027E0D22E87010C2E02C015950795E6
:101980000A94E2F702951295107F1027007F102726
:1019900000716D2D6C1B20E040E087E059DC219741
:1019A00050F7DF91CF911F910F91FF90EF90DF9053
:1019B00008950F9380E08BDC44DE00E020E040E1FE
:1019C00060E0BFDE41DE20E140E062E0BADE0DDF34
:1019D0008EDFA2DF0F91ACCF0F9324DE32DE00E06A
:1019E00020E040E160E0ADDE0F9108950F931DDE31
:1019F0002BDE00E020E140E062E0A3DE0F910895DD
:101A0000CF93C82F27DE982F8BEA989F912D112412
:101A1000969596959695892F880F980F892F880F00
:101A2000880F8C0F08DECF91E0CECF93C82F12DE47
:101A30009C2F990F9C0F990F990F980F97FF892F43
:101A4000FADDCF91D2CEFADD52CF01DE91E08927C7
:101A5000EFDD62CFCF93C82F33DB8C0FE0DACF916D
:101A600067CF3CDB91E0892734DB62CF08958DCCD2
:101A700048CD442321F0813019F4663018F00895E0
:101A8000825041CD862F2BCD08950C94F4033BCA90
:101A90000C946904813029F0825041110C94350571
:101AA0007BC8663028F0663039F0673041F0089521
:101AB0004423E9F3862FD3C94423C9F3E9C9442356
:101AC000B1F30CCAE1C8089574CF442349F08530BE
:101AD00091F188F4833069F1843019F4653098F11C
:101AE0000895813001F1823009F037C06530C0F7C8
:101AF00088E0860F71CF8730C1F0883061F46623AB
:101B0000E9F0673041F18DEF860F823018F16430D3
:101B1000F8F481E09FCF863009F5643088F06630B4
:101B2000A8F481E082CF862F57CF673031F0862F1F
:101B30008ACF862F5BCF862F63CF87CF8AE08ACF6D
:101B400088E0860F5DCF88E0860F50CF8FEF6DCF96
:101B50008FEF80CF86CF86EF7DCF089508950895CB
:101B6000089508954FCDCF93C62F442369F0813057
:101B700049F0883099F0873071F066E0681B8C2F4F
:101B8000CF9142CD673010F0CF910895862F34DC8D
:101B90008C2FCF9123CD862FCF913CCD81E0860F26
:101BA000CF913ECD08950895EDE0F4E08BEF808372
:101BB00081838283838384838583868387838087ED
:101BC0008187828783878487858786878787808BBD
:101BD000818B828B838B848B858B868B878B808F8D
:101BE000818F828F838F848F858F868F878F80A34D
:101BF00081A382A383A384A385A386A387A380A7AD
:101C000081A782A783A784A785A786A787A780AB7C
:101C100081AB82AB83AB84AB85AB86AB87AB80AF4C
:101C200081AF82AF83AF84AF85AF86AF87AF80933C
:101C30004D0480934E0480934F048093500480930E
:101C40005104809352048093530480935404089564
:101C5000EF92FF921F93CF93DF937AD19C01609113
:101C60000B0470910C0490930C0480930B048091EE
:101C70000A04482F50E0461B570B420F531F9A018E
:101C8000ADE8B2E80E94FF17DC01AA0FAB2FAA1F34
:101C9000BB0BB1952BEF2A9FC0012B9F900D1124F8
:101CA000DA01A81BB90B8A2FA0930A04EDE0F4E037
:101CB0001BEF9BEFE92EF12C15C0AD01421B530B1E
:101CC000052E000C660B770B45305105610571053B
:101CD00028F09F0121503109E9011883D4E0E5354E
:101CE000FD0769F091919B3FC9F3292F30E08917D7
:101CF00020F7A701421B530B4A0F5B1FE1CFDF9177
:101D0000CF911F91FF90EF900895E82FF0E0EE0F34
:101D1000FF1FEE0FFF1FEE0FFF1FE35FFB4FE60FEE
:101D2000F11D81E090819B3F09F0089580E00895C6
:101D300090E0880F991F880F991F880F991F835F64
:101D40009B4F860F911DFC0110820895F8945098C6
:101D5000589A7894F8943F98479A7894F8943E98D3
:101D6000469A7894F89426982E9A7894F894259820
:101D70002D9A7894F89424982C9A7894F8945798FB
:101D80005F9A7894F89456985E9A7894F894549858
:101D90005C9A7894F8948198899A7894F8948498C5
:101DA0008C9A7894F89485988D9A7894F89486987B
:101DB0008E9A7894F89487988F9A7894F8942398C8
:101DC0002B9A7894F8942198299A7894F8942298E8
:101DD0002A9A7894E9CE5F926F927F928F929F9227
:101DE000AF92BF92CF92DF92EF92FF920F931F9329
:101DF000CF93DF932DDF8DEDA82E82E0B82E95E5F1
:101E0000E92E94E0F92E812C512CCC24C394D12CB2
:101E1000F50181915F01F894E82FE295EF70A1E25E
:101E2000AE0FB0E02C918F70A60102C0440F551F79
:101E30008A95E2F7CA01922F982B9C93EE5DF0E011
:101E40009081809589238083789400C09FB19FB052
:101E500083B196959170969496949694592D5E714F
:101E6000952E992AE0E18E9FC0011124807E980E64
:101E70009094F50131978081F894E82FE295EF7006
:101E8000A1E2AE0FB0E04C918F70960101C0220F1D
:101E90008A95EAF7922F909594239C93EE5DF0E05B
:101EA0008081822B80837894FAE6FA95F1F700C05E
:101EB000D0E0C0E07C2E6C2F882D27DF811123C05D
:101EC00086010C2E01C0000F0A94EAF7692C6022EB
:101ED000F701808180238615B1F041E0611001C0D7
:101EE00040E0FE01EB52FD4F6081882D0E9403010E
:101EF0000095F7018081082306290083672D882D2E
:101F000017DF552453942196C830D10599F6839450
:101F1000FFEFEF1AFF0A29E082127ACF852DDF91B9
:101F2000CF911F910F91FF90EF90DF90CF90BF90D6
:101F3000AF909F908F907F906F905F90089582E018
:101F400084BD93E095BD9AEF97BD80936E00089590
:101F50002FB7F89480915E0490915F04A091600483
:101F6000B09161042FBF08959C014FB7F894809100
:101F70005E0490915F04A0916004B09161044FBF32
:101F8000821B930B089578941F921FB61F92112401
:101F90008F939F93AF93BF9380915E0490915F0462
:101FA000A0916004B09161040196A11DB11D8093C0
:101FB0005E0490935F04A0936004B0936104BF91AA
:101FC000AF919F918F911F901FBE1F9018959C01FC
:101FD000CB01880F991F680F791F809A91B39E7F5C
:101FE00041B34160AFB7F89461157105C1F0620F5C
:101FF000731FF9012F5F3F4F808158E041BB000004
:1020000007F487FF91BB880F000007F407F407F47B
:1020100091BB07F45A9591F76217730751F7AFBF59
:102020008FEA94E00197F1F700C000000895CF9285
:10203000DF92FF920F931F93CF93DF938C01EB01FD
:102040006A0113D4F82E81110FC0C114D104A9F074
:10205000F601808191819E01281B390BF801E80F60
:10206000F91FC817D90721F58F2DDF91CF911F9147
:102070000F91FF90DF90CF9008952097A9F3909152
:10208000E80095FF0BC0F80191918F019093F1004A
:10209000219751F39091E80095FDF5CF9091E800DC
:1020A0009E779093E800E1D3882349F3F82EDCCFA4
:1020B00090E080E04091E80045FD0FC02091E800ED
:1020C0002E772093E800F60120813181820F931F43
:1020D0009183808385E0F82EC7CF41914093F10032
:1020E00001962817390731F7BFCFCF92DF92FF92C1
:1020F0000F931F93CF93DF938C01EB016A01B5D34C
:10210000F82E81110FC0C114D104A9F0F60180810D
:1021100091819E01281B390BF801E80FF91FC817A0
:10212000D90721F58F2DDF91CF911F910F91FF904E
:10213000DF90CF9008952097A9F39091E80095FF44
:102140000BC09091F100F80191938F01219751F309
:102150009091E80095FDF5CF9091E8009B779093E2
:10216000E80083D3882349F3F82EDCCF90E080E0A9
:102170004091E80045FD0FC02091E8002B772093A7
:10218000E800F60120813181820F931F91838083C3
:1021900085E0F82EC7CF4091F100419301962817B2
:1021A000390731F7BFCFFC01CB0120916C0430918E
:1021B0006D042617370718F09B01892BF1F190E089
:1021C0002115310521F512C080916504882319F18C
:1021D0008530D9F18091E80083FD39C08091E80015
:1021E00082FD25C08091E80080FDCCC09111ECCF2C
:1021F0001EC0853051F18091E80083FD28C0809198
:10220000E80082FD14C08091E80080FD22C080912A
:1022100065048111EECF82E00895809165048823E2
:10222000D1F3853091F08091E80083FD10C080915A
:10223000E80082FFF2CF80E008958091E8008E7779
:102240008093E80030E020E0BACF83E0089581E099
:1022500008959091F3008091F200AC0188309105CF
:1022600008F07EC0DF014D914093F100B90161504B
:102270007109AC014F5F5F4F6115710509F47BC0B7
:102280004830510509F47BC041814093F100DF01E2
:10229000129661507109AC014E5F5F4F6115710577
:1022A00009F469C04830510509F469C0428140937E
:1022B000F100119661507109AC014D5F5F4F6115DE
:1022C000710509F458C04830510509F458C04381DC
:1022D0004093F100119661507109AC014C5F5F4F62
:1022E0006115710509F447C04830510509F447C02C
:1022F00044814093F100119661507109AC014B5F2C
:102300005F4F61157105B9F148305105C1F1458143
:102310004093F100119661507109AC014A5F5F4F23
:102320006115710541F14830510549F146814093ED
:10233000F100119661507109AC01495F5F4F611561
:102340007105C9F047305105D1F487818093F100C0
:1023500038962850310948E050E071F048E050E0EC
:1023600091E04830510509F090E08091E8008E77C7
:102370008093E80025CFFD0130E020E0F1CF9B0104
:10238000FD01ECCF8091F3004091F200582FE8CF8F
:10239000AC01CB0120916C0430916D0426173707F6
:1023A00018F09B01892BF1F190E02115310521F501
:1023B00012C080916504882319F18530D9F180918C
:1023C000E80083FD39C08091E80082FD25C080913E
:1023D000E80080FDC1C09111ECCF1EC0853051F1E5
:1023E0008091E80083FD28C08091E80082FD14C040
:1023F0008091E80080FD22C0809165048111EECFBC
:1024000082E00895809165048823D1F3853091F0AE
:102410008091E80083FD10C08091E80082FFF2CF38
:1024200080E008958091E8008E778093E80030E0A6
:1024300020E0BACF83E0089581E008959091F30001
:102440008091F200BC018830910508F073C0FA0158
:1024500064916093F1003196D9011197BC016F5FCF
:102460007F4F109709F471C06830710509F471C08D
:10247000E491E093F100FA01329611976F5F7F4F7C
:10248000109709F462C06830710509F462C0E491E4
:10249000E093F100FA01339611976F5F7F4F109729
:1024A00009F453C06830710509F453C0E491E09316
:1024B000F100FA01349611976F5F7F4F109709F47E
:1024C00044C06830710509F444C0E491E093F10020
:1024D000FA01359611976F5F7F4F109709F435C059
:1024E0006830710509F435C0E491E093F100FA0118
:1024F000369611976F5F7F4F109739F168307105ED
:1025000041F1E491E093F100FA01379611976F5F82
:102510007F4F1097D1F067307105D9F4E491E093C3
:10252000F100485F5F4F2850310968E070E071F0BA
:1025300068E070E091E06830710509F090E080910A
:10254000E8008E778093E80030CFAF0130E020E0E4
:10255000F1CF9D01AF01ECCF8091F3006091F200CB
:10256000782FE8CF873008F00BC18093E90041FF56
:1025700019C09091EB009E7F9093EB009091ED003D
:102580009D7F9093ED009091EB0091609093EB0014
:102590006093EC004093ED001092F0009091EE00FB
:1025A00097FFF3C091E0980F863009F4E9C090934B
:1025B000E9004091EC009091ED003091F00091FF26
:1025C00019C02091EB002E7F2093EB002091ED00AD
:1025D0002D7F2093ED002091EB0021602093EB00F4
:1025E0004093EC009093ED003093F0009091EE005A
:1025F00097FFCBC092E0980F853009F4C1C090934B
:10260000E9004091EC002091ED003091F00021FFB5
:1026100019C09091EB009E7F9093EB009091ED009C
:102620009D7F9093ED009091EB0091609093EB0073
:102630004093EC002093ED003093F0009091EE0079
:1026400097FFA3C093E0980F843009F499C090934A
:10265000E9004091EC009091ED003091F00091FF85
:1026600019C02091EB002E7F2093EB002091ED000C
:102670002D7F2093ED002091EB0021602093EB0053
:102680004093EC009093ED003093F0009091EE00B9
:1026900097FF7BC094E0980F833009F471C090934A
:1026A000E9004091EC002091ED003091F00021FF15
:1026B00019C09091EB009E7F9093EB009091ED00FC
:1026C0009D7F9093ED009091EB0091609093EB00D3
:1026D0004093EC002093ED003093F0009091EE00D9
:1026E00097FF53C095E0980F823009F449C090934A
:1026F000E9005091EC002091ED004091F00021FFA5
:1027000019C03091EB003E7F3093EB003091ED002B
:102710003D7F3093ED003091EB0031603093EB0062
:102720005093EC002093ED004093F0002091EE00D8
:1027300027FF2BC0953021F596E09093E90040915A
:10274000EC009091ED003091F00091FF19C02091C4
:10275000EB002E7F2093EB002091ED002D7F209346
:10276000ED002091EB0021602093EB004093EC0002
:102770009093ED003093F0009091EE0097FF05C02C
:102780008F708093E90081E0089580E008950F93B1
:102790001F93CF93DF93662309F440C0EC0161508F
:1027A0008C010B5F1F4F25E0629F000D111D11244E
:1027B00004C025960C171D0789F198819923C9F348
:1027C000892F8F70873020F52C8142E052E0223033
:1027D00010F046E056E069817A816930710560F059
:1027E00028E030E040E04F5F220F331F2617370705
:1027F000D0F34295407F452B6B8120E4629FB0016E
:102800001124991F9927991F692BACDE8111D1CF13
:1028100080E0DF91CF911F910F91089581E0DF91CA
:10282000CF911F910F9108958091660487FF05C095
:1028300012C080916504882349F08091E80080FFF0
:10284000F8CF8091E8008E778093E800089580911A
:1028500065048823D9F38091E80082FFF8CF809146
:10286000E8008B778093E80008958091E4009091D0
:10287000E50025E6AC019091EC00892F817090FD78
:1028800019C09091E80092FD1CC0809165048823D6
:10289000C9F08530C9F08091EB0085FD11C08091B1
:1028A000E4009091E5004817590729F3215011F7EA
:1028B00084E008958091E80080FFE7CF80E00895EC
:1028C00081E0089582E0089583E008950F931F93B7
:1028D000CF93DF934BD052D0C8EDD0E088818F7773
:1028E000888388818068888388818F7D888319BCEC
:1028F00010926504109264041092620410926304B2
:1029000000EE10E0F80180818B7F808388818160F8
:10291000888342E060E080E025DEE1EEF0E0808147
:102920008E7F8083E2EEF0E0808181608083808111
:1029300088608083F80180818E7F808388818061B8
:102940008883DF91CF911F910F910895E8EDF0E01A
:1029500080818F7E8083E7EDF0E0808181608083DD
:1029600084E082BF81E080936E04B0CFE8EDF0E0B8
:1029700080818E7F80831092E20008951092DA00A9
:102980001092E10008951F920F920FB60F9211243A
:102990002F933F934F935F936F937F938F939F9367
:1029A000AF93BF93EF93FF938091E10082FF04C048
:1029B0008091E20082FD92C08091DA0080FF04C025
:1029C0008091D80080FD50C08091E10080FF04C05C
:1029D0008091E20080FD89C08091E10084FF2BC0DE
:1029E0008091E20084FF27C080E189BD82E189BD3A
:1029F00009B400FEFDCF8091D8008F7D8093D80070
:102A00008091E1008F7E8093E1008091E2008F7ED3
:102A10008093E2008091E20081608093E2008091E7
:102A20006404811177C08091E30087FD7DC081E05F
:102A3000809365043FD28091E10083FF04C08091C0
:102A4000E20083FD27C0FF91EF91BF91AF919F916D
:102A50008F917F916F915F914F913F912F910F9047
:102A60000FBE0F901F9018958091DA008E7F809393
:102A7000DA008091D90080FF51C080E189BD82E1F8
:102A800089BD09B400FEFDCF81E0809365040E94FA
:102A90005E019ACF8091E100877F8093E10082E020
:102AA00080936504109264048091E1008E7F80938E
:102AB000E1008091E2008E7F8093E2008091E2004D
:102AC00080618093E20042E060E080E04BDD809135
:102AD000F00088608093F000EDD1B5CF8091E100E7
:102AE0008B7F8093E100E6D167CF8091E2008E7FFB
:102AF0008093E2008091E20080618093E200809107
:102B0000D80080628093D80019BC85E0809365046A
:102B1000D1D162CF84E0809365048CCF19BC109230
:102B200065040E945F0150CF83E082CF1F920F9215
:102B30000FB60F9211242F933F934F935F936F9390
:102B40007F938F939F93AF93BF93CF93EF93FF9315
:102B5000C091E900CF708091EC0080FDC0681092B8
:102B6000E9008091F000877F8093F00078941CD07A
:102B70001092E9008091F00088608093F000CF709F
:102B8000C093E900FF91EF91CF91BF91AF919F91D9
:102B90008F917F916F915F914F913F912F910F9006
:102BA0000FBE0F901F9018951F93CF93DF93CDB753
:102BB000DEB7AA970FB6F894DEBF0FBECDBF8091E7
:102BC000F100809366048091F10080936704809106
:102BD000F100809368048091F100809369048091F2
:102BE000F10080936A048091F10080936B048091DE
:102BF000F10080936C048091F10080936D040E9439
:102C000064018091E80083FF11C090916604809177
:102C10006704853009F4C2C008F1883009F473C034
:102C2000893009F045C0992309F4D8C08091E800A3
:102C300083FF0AC08091E800877F8093E80080913D
:102C4000EB0080628093EB00AA960FB6F894DEBF8B
:102C50000FBECDBFDF91CF911F910895282F2D7FFB
:102C6000213009F463C08111E1CF903809F4DDC04F
:102C70009238E1F680916A048F708730B8F68093BD
:102C8000E9008091EB0085FB882780F91092E9002C
:102C90009091E800977F9093E8008093F100109264
:102CA000F1008091E8008E778093E800BDDDBECF13
:102CB000863009F0BBCF9058923008F0B7CF8091A2
:102CC0006804909169048C3D23E0920709F4B8C030
:102CD00060916A0470916B04AE014F5F5F4F0E9478
:102CE000C700BC01892B09F4A1CF8091E800877F40
:102CF0008093E80089819A814BDB8091E8008B7793
:102D00008093E80093CF903809F090CF8091E8004D
:102D1000877F8093E800809164048093F100809124
:102D2000E8008E778093E8007FDD80CF992309F457
:102D300070C0923009F07ACF90916804911125C04B
:102D400090916A049F702FEF290F263008F06ECF04
:102D50009093E9002091EB0020FF17C0833009F425
:102D6000A3C08091EB0080618093EB0021E030E014
:102D700001C0220F9A95EAF72093EA001092EA0028
:102D80008091EB0088608093EB001092E9008091C5
:102D9000E800877F8093E80047DD48CF911146CF58
:102DA000109168041F778091E3008078812B8093D5
:102DB000E3008091E800877F8093E80035DD809113
:102DC000E80080FFFCCF8091E30080688093E300FF
:102DD00082E0111183E08093650428CF809168041C
:102DE000823008F023CF9091E800977F9093E8001D
:102DF0008093640419DD8091640481111FC0809167
:102E0000E30087FD1BC081E0809365040E946001A0
:102E10000DCF90916804913009F008CF91E0833094
:102E200009F090E090936204B0CF80916304909198
:102E30006204992309F42CCF82602ACF84E0E4CF86
:102E400083E08A838AE289835FB7F894DE01139670
:102E500020E03EE041E20AC08F708A3090F0895C49
:102E600090E08D939D932F5F243169F0E32FF0E084
:102E700040935700849120FFEFCF82958F703F5F82
:102E8000ECCF805DEDCF5FBF8091E800877F8093BE
:102E9000E8006AE270E0CE01019685D98091E800F1
:102EA0008B778093E800C2CE8091EB0080628093A4
:102EB000EB006BCF0895CF93DF93EC011B8682E08C
:102EC0008C83898761E0CE01019661DC811104C0A9
:102ED00080E0DF91CF91089561E0CE010696DF9109
:102EE000CF9155CCFC01CB0120916504243011F029
:102EF00082E0089521812F702093E90050E040E0A6
:102F000064E070E094D88111F4CF9091E80095FDD1
:102F1000F0CF9091E8009E779093E8000895FC012F
:102F200080916504843091F481818F708093E900F1
:102F30009091F3008091F200892B11F480E00895C4
:102F40008091E8008E778093E8008FCC82E008952E
:102F5000FC0180916504843039F481818F70809305
:102F6000E9008091E80080FF0895CF01D8CFFC01EF
:102F7000CB0120916504243061F426812F702093C9
:102F8000E9002091E80022FF04C02091E80025FD1F
:102F900002C080E0089550E040E064E070E0A5D811
:102FA0008091E80085FD07C08091E8008B778093D1
:102FB000E80081E0089581E00895A1E21A2EAA1B9D
:102FC000BB1BFD010DC0AA1FBB1FEE1FFF1FA217D9
:102FD000B307E407F50720F0A21BB30BE40BF50BD6
:102FE000661F771F881F991F1A9469F7609570955F
:102FF000809590959B01AC01BD01CF010895A29FE2
:10300000B001B39FC001A39F700D811D1124911DBC
:10301000B29F700D811D1124911D0895F894FFCF6A
:103020000182400000010140000001006400000333
:10303000010001030100010301000103010001037C
:103040000100010301000103010001030108000068
:10305000030101000301010003010100030101005C
:103060000301010003010100030101000301070046
:1030700000030100FF030100FF030100FF03010043
:10308000FF030100FF030100FF030100FF0301052F
:10309000000003010001030100010301000103011D
:1030A000000103010001030100010301000103010C
:1030B00008000003010001030100010301000103F6
:1030C00001000103010001030100010301000103EC
:1030D00001080000030100010301000103010001D8
:1030E00003010001030100010301000103010001CC
:1030F0000301080524010302370D380D360D390D83
:10310000440D450D470D480D4A0D620D630D640DCC
:10311000B00D650DAF0DB10DB20DD30DB30DD20DC8
:10312000102040647FE201D801F601EC01000000AC
:1031300000000000000000000000000000FF000090
:1031400000000000FF0000FF00FF00000000FF0083
:10315000FF0000000000010000000000000000006F
:103160000000000000000000FF00000000FF000061
:103170000000FF00FF0000FF00FF0000FF00FF0055
:10318000FF00FF00010000FF00FF00010000000041
:10319000000000000000010203040506070002040D
:1031A00006080A0C0E000306090C0F12150004088D
:1031B0000C1014181C00050A0F14191E2300060C0D
:1031C00012181E242A00070E151C232A310008108D
:1031D00018202830380009121B242D363F000A140D
:1031E0001E28323C46000B16212C37424D000702A8
:1031F00009040B060D00010203040607059067662B
:0632000036353497969468
:00000001FF
